:020000040800F2
:10000000B0080020AD010008A31300087512000815
:10001000A1130008B9020008411A000800000000FE
:10002000000000000000000000000000DD160008D5
:10003000BB02000800000000D1150008DF16000810
:10004000C7010008C7010008C7010008C701000870
:10005000C7010008C7010008C7010008C701000860
:10006000C7010008C7010008C7010008C701000850
:10007000C7010008C7010008C7010008C701000840
:10008000C7010008C7010008C70100080000000000
:10009000000000000000000000000000C701000890
:1000A000C7010008C7010008C7010008C701000810
:1000B000C7010008C7010008C7010008C701000800
:1000C000C7010008C7010008C7010008C7010008F0
:1000D000D5150008C7010008351A00080000000007
:1000E000C7010008C7010008C701000800000000A0
:1000F000000000000000000000000000C701000830
:1001000000000000C7010008C7010008C70100087F
:1001100000000000000000000000000000000000DF
:10012000C7010008C7010008C7010008C70100088F
:10013000C7010008000000000000000000000000EF
:10014000000000000000000000000000C7010008DF
:10015000C7010008C7010008C7010008C70100085F
:10016000C7010008C70100080000000000000000EF
:10017000000000000000000000000000000000007F
:1001800000000000C701000800000000000000009F
:10019000C7010008C7010008DFF80CD000F07AF8AA
:1001A00000480047CD1A0008B008002006488047E4
:1001B00006480047FEE7FEE7FEE7FEE7FEE7FEE74C
:1001C000FEE7FEE7FEE7FEE7651700089901000875
:1001D0002DE9F05F0546002092469B46884606467C
:1001E000814640241BE0284641464746224600F00F
:1001F00041F853465A46C01A914110D31146184649
:10020000224600F028F82D1A67EB01084F462246D7
:100210000120002100F01FF817EB00094E41201EBD
:10022000A4F10104DFDC484631462A464346BDE8D6
:10023000F09FD2B201E000F8012B491EFBD27047BB
:100240000022F6E710B513460A4604461946FFF7A2
:10025000F0FF204610BD202A04DB203A00FA02F10C
:10026000002070479140C2F1200320FA03F31943A4
:1002700090407047202A04DB203A21FA02F0002146
:10028000704721FA02F3D040C2F1200291400843A6
:1002900019467047064C074D06E0E06840F0010340
:1002A00094E8070098471034AC42F6D3FFF778FF84
:1002B000501B0008701B0008FEE77047704790F85D
:1002C0003510022903D080214165012070470521A6
:1002D00080F835100068016821F0010101600020FC
:1002E0007047000070B5044600F0DEF80546601C5B
:1002F00002D004480078044400F0D6F8401BA04225
:10030000FAD370BD040000202DE9F84F00224FF011
:10031000010803254FF00F0E0B6808FA02F4234082
:10032000A34271D14E68012E05D0022E03D0112EAA
:1003300001D0122E15D18668570005FA07FC26EA6F
:100340000C06D1F80CC00CFA07FC4CEA060CC0F8FD
:1003500008C04668A6430C79C4F3001494403443A3
:100360004460C668570005FA07FC8C6826EA0C064C
:10037000BC403443C4604C68022C01D0122C13D111
:10038000D40800EB8404A346D4F8209054074FEA25
:10039000D46A0EFA0AF629EA06090E6906FA0AF67E
:1003A00046EA0906CBF8206004680E7924EA0C04BA
:1003B00006F00306BE40264306604C68E40056D5AE
:1003C0002E4C266846F480462660246822F00306F8
:1003D00004F4804400942A4C3444A446D4F80848D9
:1003E0009607370F0EFA07F6B443264EB04201D1F6
:1003F000002615E0244EB04201D1012610E0234E24
:10040000B04202D102260BE031E0214EB04201D1D0
:10041000032605E01F4EB04201D1042600E0072666
:10042000BE402643CCF808681B4E34684F689C4396
:10043000FF0300D51C433460174E361D34684F68E7
:100440009C43BF0300D51C433460134E0836346808
:100450004F689C43FF0200D51C4334600E4E0C369F
:1004600034684F689C43BF0200D51C433460521C63
:10047000102AFFF451AFBDE8F88F00004438024065
:100480000030014000000240000402400008024029
:10049000000C024000100240003C01400AB18161A2
:1004A00070470904FBE700000148806870470000BE
:1004B000040000200248816802781144816070477E
:1004C000040000200B4810B5016841F40071016080
:1004D000016841F480610160016841F4807101604C
:1004E000032000F06FF8002000F006F800F024F878
:1004F000002010BD003C024070B50D4D04464FF485
:100500007A712878B1FBF0F00A490968B1FBF0F084
:1005100000F005FD48B9102C07D200222146501EDC
:1005200000F030F800206C6070BD012070BD00004C
:1005300004000020100000200A4808B5016841F4BA
:1005400080410160006800F4804000900548001F71
:10055000016841F080510160006800F08050009017
:1005600008BD000044380240002809DB00F01F02EB
:10057000012191404009800000F1E020C0F8001105
:1005800070470000F0B40E4B1B680C46C3F3022307
:10059000C3F10705042D00D90425191D072901D22F
:1005A000002300E0DB1E012606FA05F1491E21406A
:1005B00099409E40761E16403143F0BC01F04ABA85
:1005C0000CED00E0064900F0070208684FF6FF0353
:1005D000184040EA0220034A1043086070470000B8
:1005E0000CED00E00000FA052DE9F0470E4605008D
:1005F00065D0DFF81481D8F80000F7B200F00F00E2
:10060000B04207D288F80070D8F8000000F00F0060
:10061000B04254D128683D4C810712D5400703D51C
:10062000206840F4E05020602878000703D5206857
:1006300040F4604020602068A96820F0F000084382
:1006400020602878C0072DD0304968680839012813
:1006500012D0022813D0032811D009688907002975
:100660002DDA216821F0030101432160FFF71CFF0F
:10067000814641F2883A0EE009688903EFE709688C
:100680008901ECE7FFF710FFA0EB0901514502D902
:100690000320BDE8F0872068696800F00C00B0EB2B
:1006A000810FEFD1D8F80010404601F00F01B142A0
:1006B00007D90770006800F00F00B04201D0012098
:1006C000E7E72878400705D52068E96820F4E0507E
:1006D000084320602878000706D52068296920F49F
:1006E000604040EAC100206000F038F82168084A04
:1006F000C1F30311515CC840064908600648006810
:10070000FFF7FAFE0020C4E7003C02400838024030
:10071000381B00081000002008000020044805498C
:1007200000680968044AC1F38221515CC8407047DF
:100730001000002008380240481B00080448054902
:1007400000680968044AC1F34231515CC8407047EF
:100750001000002008380240481B0008154810B55A
:10076000006810F00C02144813D01449042A0FD06A
:10077000082A0ED10F4C241F2268236802F03F0282
:100780005B0207D52068C0F38810A0FB010106E0DA
:10079000084610BD2168C1F38811A1FB00010023A8
:1007A000FFF716FD2168C1F30141491C4900B0FB68
:1007B000F1F010BD083802400024F40040787D01BB
:1007C0002DE9F84F04006ED02078DFF83C93C00785
:1007D000A9F104054AD009F104000168C1F38101BF
:1007E000012908D00068C0F3810002280AD1D9F895
:1007F0000000400206D52868800337D560680028CD
:10080000E1D033E06068B0F5803F10D0B0F5A02FA4
:10081000286810D020F480302860286820F48020D8
:1008200028606068A8B1FFF73FFE06460DE0286823
:1008300040F48030F4E740F480202860F7E700BF00
:10084000FFF732FE801B642873D828688003F7D531
:100850000CE0FFF729FE064605E000BFFFF724FE87
:10086000801B6428F0D828688003F7D42078DFF84C
:100870009C8280074FF0000A3ED5A348001D016806
:1008800011F00C0F08D00068C0F3810002280BD1D2
:10089000D9F80000400207D42868800716D5E06820
:1008A000012800D112E02BE1E068B8B10120C8F8BE
:1008B0000000FFF7F9FD064605E000BFFFF7F4FD75
:1008C000801B0228C0D828688007F7D528682169CE
:1008D00020F0F80040EAC10028600DE0C8F800A050
:1008E000FFF7E2FD064604E0FFF7DEFD801B02286D
:1008F0001FD828688007F7D42078000722D5824EB9
:1009000083486169703671B101210160FFF7CCFD48
:10091000074604E0FFF7C8FDC01B022809D830686D
:100920008007F7D50EE0C0F800A0FFF7BDFD074631
:1009300005E082E0FFF7B8FDC01B02287DD83068D3
:100940008007F7D42078400768D5DFF8BCB10027CE
:100950000BF13C0BDBF80000C0000BD4DBF80010FF
:1009600041F08051CBF80010DBF80000012700F0C7
:1009700080500090674E3068C00510D4306840F455
:1009800080703060FFF790FD009005E0FFF78CFD70
:100990000099401A022850D83068C005F6D55A4E42
:1009A000A0686C3601280FD00528306810D020F0E0
:1009B00001003060306820F004003060A068B8B1F9
:1009C000FFF772FD00900FE0306840F00100F4E79F
:1009D00040F004003060F7E7FFF766FD0099411A28
:1009E00041F28830814266D830688007F4D50EE045
:1009F000FFF75AFD009007E0FFF756FD0099411AF6
:100A000041F28830814256D830688007F4D42FB143
:100A1000DBF8001021F08051CBF80010A069C8B3BA
:100A20003949091D0968C1F3810102294AD0022808
:100A3000504607D0C8F8600000E03CE0FFF734FD06
:100A400004463BE04746C8F86000FFF72DFD064628
:100A500005E000BFFFF728FD801B02282BD828687F
:100A60008001F7D4D4E907010843A16A2A4A49085A
:100A700002EB0141626A41EA8211084394F82C10AA
:100A800040EA0161C9F8001001203866FFF70CFD4B
:100A9000044606E036E000BFFFF706FD001B022813
:100AA00009D828688001F7D52CE000BFFFF7FCFCCF
:100AB000001B022802D90320BDE8F88F28688001B6
:100AC000F4D41FE00128F7D0D9F80000E26900F45F
:100AD0008001914214D1226A00F03F0191420FD16E
:100AE00047F6C071626A0140914209D1A26A00F4DE
:100AF0004031914204D1E16A00F07060884201D037
:100B00000120D9E70020D7E704380240000047421F
:100B1000800E4742007000400000FFFF7047000059
:100B200038B5016804464A688868C043430606D55C
:100B3000C30704D1D3435B0601D4216C05E08307CE
:100B400008D4D3431B0605D4616C01B02046BDE830
:100B500030400847830603D5430601D5C30551D469
:100B6000D3439B064ED443060AD494F85130032B4A
:100B700049D0636D43F004036365CB688B680093D1
:100B8000830609D4636D43F0010363658B680093AA
:100B90000B6823F040030B60C00506D4606D40F085
:100BA00008006065206880680090606D002829D08A
:100BB0002068416821F0E0014160012084F8510083
:100BC000900701D4D00722D02068416821F00301AA
:100BD0004160114DE06C40B10565E06CFFF76FFBC3
:100BE00018B1606D40F040006065A06C002809D02D
:100BF0000565A06CFFF763FB002803D0606D40F033
:100C00004000606538BDC8688868009038BD2046DF
:100C1000FFF784FF38BD0000E115000870B504003F
:100C200005D00025A56294F8510010B106E001201E
:100C300070BD84F85050204600F030F8022084F84F
:100C400051002068016821F040010160D4E90101F0
:100C50000843D4E903121143084361690843218B17
:100C600001F400710843E1690843216A0843A16A5D
:100C7000084321680860A069042101EA1040616A04
:100C80000843216848602068C16921F40061C1619E
:100C90006565012084F85100002070BDF0B587B073
:100CA000044614216846FFF7CBFA204920688842A1
:100CB0003AD11F480024016841F480410160006876
:100CC00000F4804005901A481038016841F0040192
:100CD0000160016801F004010591016841F0020121
:100CE00001600068022500F0020005900C20CDE9AB
:100CF000000502AA0326052782E8D00069460D48B0
:100D0000FFF702FB2803CDE9000502AA694682E845
:100D1000D0000948FFF7F8FA002211462420FFF717
:100D200031FC2420FFF720FC07B0F0BD0038004064
:100D30004038024000080240000402402DE9F84F0C
:100D4000044690F8500000270A9E1D4692468B46A6
:100D50004FF0010901280ED0012084F85000FFF760
:100D6000A3FB804694F85100616801280CD0B1F5CE
:100D7000827F07D102E00220BDE8F88FA16809B99F
:100D8000042801D00227C2E0BBF1000F27D0BAF13E
:100D9000000F24D01DB394F85100042802D0052080
:100DA00084F8510000206065C4F838A0E587A58765
:100DB000C4F830B0E586A5862064606420680168C8
:100DC000490603D4016841F040010160E068B0F5D4
:100DD000006F606805D0E8B3012D46D07FE00127A1
:100DE00095E008B1012D39D1206B21680088C860D9
:100DF000206B801C2063E08E401EE0862EE0206881
:100E0000816889070FD5E18E69B1B9F1010F0AD167
:100E1000216B0988C160206B801C2063E08E401E1E
:100E2000E0864FF0000920688168C9070CD0E18F87
:100E300051B1C068A16B0880A06B801CA063E08FDB
:100E4000401EE0874FF00109FFF72EFBA0EB0800E2
:100E5000B04200E009E001D3701C50D1E08E0028C0
:100E6000CDD1E08F0028CAD13FE0206B2168007807
:100E70000873206B401C2063E08E401EE0862EE04D
:100E80002068816889070FD5E18E69B1B9F1010F3A
:100E90000AD1216B09780173206B401C2063E08E1E
:100EA000401EE0864FF0000920688168C9070CD019
:100EB000E18F51B1C068A16B0870A06B401CA063AA
:100EC000E08F401EE0874FF00109FFF7EDFAA0EB3D
:100ED0000800B04202D3701C01D010E07EB1E08E59
:100EE0000028CDD1E08F0028CAD1424631462046A5
:100EF00000F07EFB28B101272020606507E0032772
:100F000005E0A06818B92068C168806800900120D9
:100F100084F85100002084F8500038462CE710B5C2
:100F2000401EB0F1807F01D3012010BD4FF0E024BE
:100F300060610F21601700F08DFD0020A061072087
:100F40002061002010BD704770B50268044610682B
:100F5000D168536910F00F0F52D003F0010501F46E
:100F600090762E435FD0C20705D0CA0503D5E26B49
:100F700042F00102E263420705D5DA0703D0E26BD3
:100F800042F00202E263820705D5DA0703D0E26B82
:100F900042F00402E263020707D501F020022A436F
:100FA00003D0E26B42F00802E263E26B002A33D026
:100FB000800604D5880602D5204600F0F7FB20689D
:100FC0004069E16BC0F38010090700D428B32046C4
:100FD00000F0DEFB2068416949061AD5416921F01D
:100FE00040014161606BA0B11B490165606BFFF777
:100FF00066F9002810D0606B016DBDE870400847AD
:10100000830610D58B060ED52046BDE8704000F053
:10101000CDBB2046FFF797FF70BD2046FFF793FF3B
:101020000020E06370BD030606D50B0604D52046FC
:10103000BDE8704000F09ABC4006F3D54806F1D5F3
:10104000D168204621F04001D160202184F8391078
:1010500000F00FF970BD00008117000870B50400A2
:1010600004D094F83900002510B106E0012070BDCD
:1010700084F83850204600F023F8242084F8390002
:101080002068C16821F40051C160204600F0DAFBFD
:101090002068016921F4904101612068416921F0D3
:1010A0002A0141612068C16841F40051C160E563D3
:1010B000202084F8390084F83A00002070BD000038
:1010C00010B586B0044614216846FFF7B9F81749F1
:1010D0002068884228D116480021026842F4003274
:1010E0000260006800F40030059011481038026872
:1010F00042F001020260006800F0010005900C203F
:1011000000900220CDE90101032003900720049004
:1011100069460848FFF7F8F8002211462620FFF735
:1011200031FA2620FFF720FA06B010BD0044004037
:10113000403802400000024090F83A30202B22D183
:10114000F9B1F2B190F83830012B1CD08162828560
:10115000C2850021C163222280F83A2080F838102D
:101160000168CA6842F48072CA6001684A6942F044
:1011700001024A610068C16841F02001C16000209D
:101180007047012070470220704700000068064940
:10119000884207D1054901208202087004490548A8
:1011A000FFF7CABF70470000004400400000002065
:1011B00018000020700400202DE9F843044690F840
:1011C00039001F4616460D46202850D1B5B1AEB1A4
:1011D00094F8380001284AD0012084F838004FF0F4
:1011E0000008C4F83C80212084F83900FFF75CF93E
:1011F000A6848146E68484F8388026E00120BDE894
:10120000F883E08C401EE084A0684B46B0F5805F18
:101210004FF000024FF080012046009703D000F00D
:10122000D6FBE8B90DE000F0D2FBC8B928882168E8
:10123000C0F308004860206908B16D1C05E0AD1CD2
:1012400003E0216815F8010B4860E08C0028D8D134
:101250004B46002240212046009700F0B8FB08B121
:101260000320CCE7202084F839000020C7E70220C3
:10127000C5E77047FEE700002DE9F04186B0142174
:101280006846FEF7DDFF23480024016841F0800135
:101290000160016801F080010591016841F00401DD
:1012A0000160016801F004010591016841F001014C
:1012B0000160016801F001010591016841F002013E
:1012C00001600068144F00F002004FF4846505903F
:1012D000002229463846FFF7E1F8DFF84080BE15C6
:1012E000002231464046FFF7D9F800950125CDE9A7
:1012F0000154694638460394FFF706F80096CDE995
:101300000154694640460394FEF7FEFF06B0BDE86F
:10131000F08100003038024000040240000002402A
:10132000104810B50E4901604FF4827141600021F0
:1013300002228160C0E903120122426152028261ED
:101340000822C0E90721416281620A21C162FFF7D8
:1013500065FC002803D0BDE81040FEF7AFBF10BD0C
:1013600000380040180400200C4810B50A490160FC
:101370004FF4FA314160002181600C22C160C0E964
:1013800004128161C161FFF769FE002803D0BDE846
:101390001040FEF793BF10BD0044004070040020D1
:1013A000FEE7704770B5002404F1B000C0B200F051
:1013B000C3F8002000F0C0F8102000F0BDF80025B0
:1013C000002000F0DFF86D1CEDB2802DF8D3641C16
:1013D000E4B2082CE8D370BD2DE9F04798461746D3
:1013E000824600260C46DDF8209010E0214650464B
:1013F00000F08EF8554606E019F80600761C00F05D
:10140000C1F86D1CEDB2BD42F6D3641CE4B2444594
:10141000ECD3BDE8F08710B500F072F86420FEF759
:1014200061FF00F065F86420FEF75CFF00F068F8EB
:10143000AE2000F081F8002000F07EF8102000F0CF
:101440007BF8402000F078F8812000F075F8CF207C
:1014500000F072F8A12000F06FF8C82000F06CF8DE
:10146000A62000F069F8A82000F066F83F2000F000
:1014700063F8D32000F060F8002000F05DF8D5207C
:1014800000F05AF8802000F057F8D92000F054F806
:10149000F12000F051F8DA2000F04EF8122000F0B0
:1014A0004BF8DB2000F048F8402000F045F8202001
:1014B00000F042F8022000F03FF88D2000F03CF8E8
:1014C000142000F039F8A42000F036F8A62000F02F
:1014D00033F8AF2000F030F8AF2000F02DF8FFF720
:1014E00061FF0021BDE81040084600F011B800007F
:1014F00000224FF480710148FEF7D0BF0000024087
:10150000012211020148FEF7C9BF0000000002409D
:1015100010B50446B031C8B200F00EF8102040EA11
:10152000141000F009F804F00F00BDE8104040F07E
:10153000010000F001B8000011B583B000200F4C8D
:101540008DF80400024620212046FEF7A7FF002266
:1015500021152046FEF7A2FF0A200090012301AAD0
:1015600003A90748FFF7EAFB012220212046FEF7E6
:1015700095FF9DF8040004B010BD00000004024077
:101580001804002011B583B000200F4C8DF8040022
:10159000024620212046FEF781FF012291022046CB
:1015A000FEF77CFF0A200090012301AA03A9074847
:1015B000FFF7C4FB012220212046FEF76FFF9DF8B4
:1015C000040004B010BD0000000402401804002014
:1015D000704700000148FFF7A3BA0000180400207C
:1015E00010B5806B0021C187C186FFF797FA10BD47
:1015F00038B504461248134B0068B0FBF3F04FF4C3
:101600007A73584300906068B0F5827F0DD10B4625
:10161000009200228021204600F016F870B1606D23
:1016200040F020006065032038BD009830B1401EB6
:10163000009020688068C0430006F6D5002038BDC1
:101640001000002000366E012DE9F0411D461746BE
:101650000E460446DDF8188008E0681C06D0FEF748
:1016600023FFA0EB0800A8420BD255B12068806888
:1016700036EA000030D00020B842EED10020BDE8AC
:10168000F0812068416821F0E00141606068B0F5B8
:10169000827F0BD1A068B0F5004F02D0B0F5806F0B
:1016A00004D12068016821F040010160A06AB0F512
:1016B000005F09D12068016821F4005101602068B1
:1016C000016841F400510160012084F851000020BC
:1016D00084F850000320D2E70120CDE77047FEF7E1
:1016E000E9BE000030B593B030216846FEF7A8FD92
:1016F00014210CA8FEF7A4FD18480025016841F04C
:1017000080510160006800F0805011901448016819
:1017100041F4404101600068022400F4404011900F
:101720000120039010200490009406940820CDE935
:1017300007504820CDE9090404200B906846FFF7C4
:101740003FF80CA90F2081E83100E002CDE90F0538
:1017500002210CA8FEF748FF13B030BD403802400C
:10176000007000400548016841F4700101600349C0
:101770004FF00060803908607047000088ED00E09D
:1017800010B5806B0021C185C184FFF7DCFB10BD63
:101790000168CA6822F49072CA6001684A6922F03E
:1017A00001024A61202180F83A10704710B590F884
:1017B0003A10222901D0022010BD8168B1F5805F66
:1017C00011D00169002901681FD0496801F07F0329
:1017D000816A4A1C82620B70C18D491E0904090C82
:1017E000C18518D02BE00269816A002A026852681C
:1017F00005D0D2B20A80816A491C8162ECE7C2F34B
:1018000008020A80816A891CF7E74A68816A4B1CD2
:1018100083620A70E0E70168CA6822F02002CA60A9
:101820000168CA6822F48072CA6001684A6922F0BD
:1018300001024A61202180F83A10FFF7A7FC00203E
:1018400010BD00002DE9F041044600680169E2681E
:1018500021F44051114301612169A068E269084304
:101860006169114308432168CA6849F20C639A43CD
:101870000243CA6020684169A26921F440711143A2
:101880004161E069192764253226B0F5004F354AD9
:10189000354920684FF0000806D0884201D09042B8
:1018A00036D1FEF74BFF35E0884201D0904202D19D
:1018B000FEF744FF01E0FEF731FF61684A18A0FB24
:1018C000070148EB0803FEF783FC0146B0FBF5F087
:1018D0000201B1FBF5F06FF01803584301EB8000F3
:1018E00006EBC000B0FBF5F000F0F80002EB4002A0
:1018F000B1FBF5F0584301EB800006EBC000B0FBF4
:10190000F5F000F00700216810448860BDE8F08120
:10191000FEF704FF61688B0F8A00A0FB0701FEF74A
:1019200057FC0146B0FBF5F06FF01802504301EB95
:10193000800006EB0010B0FBF5F000F0F002B1FB08
:10194000F5F002EB0012B1FBF5F06FF0180358430D
:1019500001EB800006EB0010B0FBF5F000F00F008B
:10196000D1E70000001401400010014090F8391048
:10197000212901D0022070478168B1F5805F016A9A
:101980000BD04A1C0262026809785160C18C491E62
:101990000904090CC1840ED017E009880268C1F35C
:1019A0000801516001690029016A02D0491C0162E5
:1019B000ECE7891CFBE70168CA6822F08002CA6074
:1019C0000068C16841F04001C160002070472DE906
:1019D000F041984617460E460446069D1DE0681CD9
:1019E0001BD02DB1FEF760FDA0EB0800A84214D972
:1019F0002068C16821F4D071C1602068416921F07C
:101A000001014161202084F8390084F83A00002067
:101A100084F838000320BDE8F0812068006836EAC9
:101A2000000004D00020B842D9D00020F3E7012004
:101A3000F9E700000148FFF787BA000070040020B2
:101A4000FEE70000014A024900F023B8B51A000879
:101A5000140000200907090E002804DB00F1E02033
:101A600080F80014704700F00F0000F1E02080F8CB
:101A7000141D704702E008C8121F08C1002AFAD1DD
:101A800070477047002001E001C1121F002AFBD1FE
:101A900070472DE9F04116460F460446002503E045
:101AA0003946B047641C6D1C20780028F8D12846C0
:101AB000BDE8F08113B54FF0FF33012269460248BB
:101AC000FFF77AFB00981CBD7004002008B5FEF7F4
:101AD000F9FCFFF707FEFFF7CFFBFFF721FCFFF74D
:101AE00043FCFFF798FCFFF75DFC0CA0FFF7AAFF93
:101AF0004FF480620D490E48FFF71EFB0B4E0D4C54
:101B0000002520780128FCD125700021082380229F
:101B100008460096FFF760FCF3E700005541525479
:101B2000204F70656E6564210000000018000020E1
:101B300070040020000000200000000000000000F1
:101B40000102030406070809000000000102030463
:101B5000701B00080000002018000000741A000824
:101B6000881B00081800002098080000841A00084C
:101B70000000000001000000100000000000000054
:081B80000024F4000000000045
:040000050800019955
:00000001FF
